:020000040000fa
:08000000020c040000000000e6
:020000040000fa
:10000800680e0000680e0000680e0000680e000010
:10001800680e0000680e0000680e0000680e000000
:10002800680e0000680e0000680e0000d60c000084
:10003800680e0000680e0000680e0000680e0000e0
:10004800680e0000680e0000680e0000140d000025
:10005800400e0000000d0000680e0000680e000051
:10006800680e0000680e0000680e0000680e0000b0
:10007800680e0000680e0000680e0000680e0000a0
:10008800680e0000680e0000680e0000680e000090
:10009800680e0000680e0000aa0d0000540e000053
:1000a800680e0000680e0000680e0000680e000070
:1000b800680e0000680e0000680e0000680e000060
:1000c800680e0000680e0000680e0000680e000050
:1000d800680e0000680e0000680e0000680e000040
:1000e800680e0000680e0000680e0000680e000030
:1000f800680e0000680e0000680e0000680e000020
:10010800680e0000680e0000680e0000680e00000f
:10011800680e0000680e0000680e0000680e0000ff
:10012800680e0000680e0000680e0000680e0000ef
:10013800680e0000680e0000680e0000680e0000df
:10014800680e0000680e0000680e0000680e0000cf
:10015800680e0000680e0000680e0000680e0000bf
:10016800680e0000680e0000680e0000680e0000af
:10017800680e0000680e0000680e0000680e00009f
:10018800680e0000680e0000680e0000680e00008f
:10019800680e0000680e0000680e0000680e00007f
:1001a800680e0000680e0000680e0000680e00006f
:1001b800680e0000680e0000680e0000680e00005f
:1001c800680e0000680e0000680e0000680e00004f
:1001d800680e0000680e0000680e0000680e00003f
:1001e800680e0000680e0000680e0000680e00002f
:0801f800680e0000680e000013
:020000040000fa
:10020800680e0000680e0000680e0000680e00000e
:10021800680e0000680e0000680e0000680e0000fe
:10022800680e0000680e0000680e0000d60c000082
:10023800680e0000680e0000680e0000680e0000de
:10024800680e0000680e0000680e0000140d000023
:10025800400e0000000d0000680e0000680e00004f
:10026800680e0000680e0000680e0000680e0000ae
:10027800680e0000680e0000680e0000680e00009e
:10028800680e0000680e0000680e0000680e00008e
:10029800680e0000680e0000aa0d0000540e000051
:1002a800680e0000680e0000680e0000680e00006e
:1002b800680e0000680e0000680e0000680e00005e
:1002c800680e0000680e0000680e0000680e00004e
:1002d800680e0000680e0000680e0000680e00003e
:1002e800680e0000680e0000680e0000680e00002e
:1002f800680e0000680e0000680e0000680e00001e
:10030800680e0000680e0000680e0000680e00000d
:10031800680e0000680e0000680e0000680e0000fd
:10032800680e0000680e0000680e0000680e0000ed
:10033800680e0000680e0000680e0000680e0000dd
:10034800680e0000680e0000680e0000680e0000cd
:10035800680e0000680e0000680e0000680e0000bd
:10036800680e0000680e0000680e0000680e0000ad
:10037800680e0000680e0000680e0000680e00009d
:10038800680e0000680e0000680e0000680e00008d
:10039800680e0000680e0000680e0000680e00007d
:1003a800680e0000680e0000680e0000680e00006d
:1003b800680e0000680e0000680e0000680e00005d
:1003c800680e0000680e0000680e0000680e00004d
:1003d800680e0000680e0000680e0000680e00003d
:1003e800680e0000680e0000680e0000680e00002d
:0803f800680e0000680e000011
:020000040000fa
:1018000001000000ef8f21000e7f22000e018800f2
:1018100000000000000020000000e0000200320094
:101820000001200020028800140007004b0107007f
:101830000000e00003003a00405e250001002000a7
:10184000020037000000200001002000810f70001e
:101850000100320014000700000020000000e0003a
:1018600002003200000002000000000020420200de
:10187000000000000040da000000fe004440a90023
:10188000002f20000000e0000300320000002000d4
:10189000a00188004440a800000006008a1f7800cc
:1018a0008b1f7800000006009101880080047800fa
:1018b0000000eb001a003700e284440032a0b400bc
:1018c0009905ba00e284440032a0b4009906ba0037
:1018d000e284440032a0b4000006eb00476fde0053
:1018e000fd07b200636ce10003003a00ebff070064
:1018f0000000eb000a003700606ce10004003a00d1
:10190000005deb008b05e900fdff3e0004003700a1
:101910006168e100010032000086eb000b00070067
:1019200019c7ba001905ba000e04e00003003a0016
:101930000a00e000e0ff3a0000000600fe07b200e7
:101940009e0188008a047800f5ff3700395dba00ef
:101950008b05e9000c003200295dba008b05e90017
:10196000080032000c00e00003003a00e28444006a
:1019700032a0b400f5ff370019ddba008b05e9008d
:10198000faff3a008904e800e184440032a0b40080
:101990000000060000000000000000000000000041
:1019a0000000000000000000000000003600f80009
:1019b000809fbe00829fbe00849fbe00869fbe00a7
:1019c0003400f80000002000a00188000000fa00a8
:1019d0008460a900db230700742507008a2507001f
:1019e0000080fa003400f9004f03be004f02be0031
:1019f0004f01be004f00be003600f9000040060057
:101a00003400f800881f780008002000a801880032
:101a10004f0478000000fa0085a0a9000080fa00b9
:101a20003400f900004006003600f800809fbe0038
:101a3000829fbe00849fbe00869fbe003400f800d7
:101a400000002000a00188001000fa008560a900b5
:101a500010118000620060000000e0000100320010
:101a60002222a900301180008040780060b120005f
:101a700001487800100280004500de0067406000e9
:101a80000080fb00000f780011028000000e200093
:101a900001007000100288000000000060b120000a
:101aa00090407800d058800022230700100798004b
:101ab0001e00780000407800674060000080fb0056
:101ac000670060004500dd0012028000f1f12f0088
:101ad0008100610001007000100288000000000019
:101ae0001e0090000000e00003003a00f058800063
:101af0000000e800f0588800105980000000e00065
:101b00000c003200100020003007980060b1200067
:101b100010407800004f98000000eb00200798006c
:101b20000000eb0050079800115980006400470046
:101b3000010001000080fa003400f9004f03be00ec
:101b40004f02be004f01be004f00be003600f9003c
:101b5000004006003600f800809fbe00829fbe0055
:101b6000849fbe00869fbe003400f8000000200065
:101b7000a00188001000fa0087c0a90010118000a1
:101b8000620060000000e000010032002222a90093
:101b9000b01180008040780080b3200001487800b8
:101ba000100280004500de00674060000080fb00fe
:101bb000000f780011028000000e2000010070006c
:101bc000100288000000000080b3200090407800e0
:101bd000e0598000d7220700100798001e00780007
:101be00000407800674060000080fb0067006000f4
:101bf0004500dd0012028000f1f12f00810061003c
:101c00000100700010028800000000001e0090001b
:101c10000000e00003003a00005a80000000e800e5
:101c2000005a8800205a80000000e0000c003200ba
:101c3000200020003007980080b32000104078007a
:101c4000004f98000000eb00200798000000eb0018
:101c500050079800215a80006400470001000100ed
:101c60000080fa003400f9004f03be004f02be00ae
:101c70004f01be004f00be003600f90000400600d4
:101c80003400f800881f780008002000a8018800b0
:101c90004f0478000000fa008580a9000080fa0057
:101ca0003400f900004006003400f800881f780076
:101cb00008002000a80188004f0478000000fa0006
:101cc00087e0a9000080fa003400f9000040060017
:101cd0000040da000000fe00889fbe00800478000b
:101ce000206780000000e00004003a000e000700ba
:101cf0000084eb000000e000080035002867800049
:101d00000900e00005003200090044000600070059
:101d10000000e00001003d000084eb0008007800b6
:101d20004f04be0000000600800078000100e000c3
:101d300003003a0060ce2000206788000000050004
:101d40000080eb00e28f2100828f500002003e00f5
:101d5000216788000000eb0000000600000005007d
:101d600003f0a200889fbe008a9fbe008c1f7800ef
:101d7000fc000700030133006450e1004f00320013
:101d80006420e1005200320003826c0007003b0037
:101d90000905d0000306d000820f54000c065d0038
:101da0000200390002003200890178000306780041
:101db0008582550004003d000003fd008103fd0005
:101dc0008502ea008b854200840f720002003b000e
:101dd00060001000e08018006011b8000005eb0002
:101de0007a28e1000a00390006007800c75ddd00ae
:101df000f707b200878075002d00370082817100df
:101e00000a017800610560008180d1000080d30064
:101e10008502e900f9ff3b00060440008784480082
:101e200002003b0060041400e0841c000988a30049
:101e3000070032008a8171008281710061016400b3
:101e40008904d1000884d3008b05e800170037000f
:101e50000978a30013003a000b00e00013003400df
:101e60008b05e9000804440089844c000a4474008e
:101e70000978a3000d003a000b00e00007003400d1
:101e80008b05e9000804440089844c0001003a00f5
:101e90000b0020000978a300f7ff32000001eb00df
:101ea00002003700828171000a0178007200070089
:101eb0000cf0a70001f0a000bb0037006420e10097
:101ec00002003a00838f6c00bb0033000801be00a3
:101ed0000200be00b4003700889fbe008a9fbe008b
:101ee0008c1f78009f000700a600330003866c005b
:101ef0006450e1002e0032006420e1003300320023
:101f00006150e1002f0032006120e1003100320019
:101f100085855500eb07b00009002000080420006b
:101f2000050037000804440089844c000a00310091
:101f30000603430087834b000001530081815b004f
:101f4000f8ff33000203be000800a00008044400ac
:101f500089844c00f6ff3900c639dd008301730027
:101f600001003200130020008904d1000884d3004e
:101f70000998a300050032000800a7000300a00094
:101f80008904d1000884d3008b05e8008904d100be
:101f90000884d3000001eb000281d2003600070064
:101fa00001f0a1000cf0a70001f0a0007e003700b6
:101fb0006420e100800032000801be000200be0083
:101fc000f7ff37006120e1007b0032006000b800bd
:101fd000f3ff37000000200001f82700f0ff370072
:101fe00014002000ab003700f4ff2f00a9003700d9
:101ff0000001be00460007000470a70003f0a10026
:1020000003f8a30013003a006509b1001000320084
:10201000090035006928e1000200350001002800b0
:102020000000050000004000818048008502e900b2
:10203000fcff3a0000000600f88f42000500350062
:102040008100d1000080d3008502e800fcff3a0047
:10205000000006008000eb00000005004f89de0054
:1020600082017800a60037006011b800b400370084
:1020700004002000870037008100200061805500a7
:102080000b003d000b00200061fe2f000100e1006d
:102090001d00340082817100610164008904d10057
:1020a0000884d3000000e800faff3a007100200025
:1020b000610064000300700002006000090032004b
:1020c00061044400e0844c000988a500050032004a
:1020d0008b05e8006808e10002003a008904d1009d
:1020e0000884d300f20f20000258e10005003d00f3
:1020f000c75ddd00f907b20089807500080078002f
:10210000000006000bf827008b0078000000050097
:10211000c70ade00f107b200f50fb2000800320076
:10212000e1cf4200020032000170a000240005004f
:10213000810f700001003200040805004400050012
:10214000810f700002003a00140005008502e900ca
:102150000000400081c04800fcff3b000170a0006f
:10216000240005000004be00e9ff07000003be00d4
:102170000405be000200be00e5ff0700844f7500a5
:10218000000006000200be006450e10005003600b9
:102190006420e100020036000968a30001003a0053
:1021a0000800be000160a0004f0678004f05be0089
:1021b0004f04be0000000600f0ff2f00f1ff2700d3
:1021c000f9ff3700889fbe008a9fbe008c1f7800f1
:1021d000e4ff0700ebff330003866c006450e1006e
:1021e000240032006420e100270032006150e10049
:1021f000220032006120e100210032008b85420084
:10220000eb07b1000134b800003ab80008044200fe
:1022100089844a00013ab8000030b8008880400044
:1022200009014a000400330000004000818048009a
:10223000020149008b05e900c909dd008301700036
:102240000100320013002000c814de004814dd0035
:102250004709de001200b200c808de0008847000e2
:1022600085ff070001f0a1000cf0a70001f0a0001d
:10227000cdff37006120e100cfff32000801be0032
:102280000200be00f7ff37006150e100fcff3a009a
:10229000c9ff3700889fbe008a9fbe00841f780058
:1022a000b0ff07004f00780011003300f0ff2f004f
:1022b000838f6c0006003b00040565000a00a70040
:1022c0000800370009f0a6001000200008003700c1
:1022d000820f5400838f5c0003003900100020003f
:1022e00001003e000000200009f0a7000000ea0005
:1022f0004f05be004f04be000000e00000000600d5
:10230000881f7800030478000300e00007003d0008
:1023100060001000e080180060011900e0811900e1
:1023200002003b0001f02d0003003700040007000d
:1023300008f0a70001f0a0004f047800000006009c
:10234000889fbe008a9fbe00008270000402710058
:1023500004827100260032000004be000200be00ac
:102360006011b8006b092000950220000182cf00a7
:102370000a0039000541b1000082cf000700390092
:102380000541b1000982cf00040039000541b100c8
:102390000882cf00010039000541b100054252001a
:1023a000120032000a003b0082817100610164006a
:1023b0008100d1000080d3008984d3000884d30039
:1023c0008b05e8000442e800f7ff3a0007003700f9
:1023d0000804440089844c000000480081804800c3
:1023e0008b05e9000442e900f9ff3a0022ff0700eb
:1023f0004f05be004f04be00000006000000e000d4
:102400002f003200c0017800e38f51002c0036000d
:102410000308a3002a003a00f16680000100e000f2
:1024200002003200810f50000400310011009800ba
:10243000f0668800160037008200780011019000d5
:102440000200e00002003200800f5100faff390064
:102450001102780084824000850f50001800390076
:10246000808f520003003a00830842000100780088
:10247000070037000200e000030032008301400043
:10248000830f51000e003900120098009000980050
:10249000900090000100e0000900320010014000af
:1024a000828f500006003a00c2cd20000009eb00e8
:1024b000100178001108410091009000110098006f
:1024c00000000600889fbe0000047800e1668000de
:1024d0000100e00002003200010078000d0037002a
:1024e000f1668000e0cd200004003700910f540019
:1024f000250036000180e800910090000100e00016
:10250000faff3a0010003700920f54001e00360008
:102510000280e800100178000200e000faff3a00b3
:1025200011017800f1668000e0cd20000400370042
:10253000910f5400140036000180e80091009000d3
:10254000828f5000faff3a0009678000888f54009c
:102550000100310088047800090078003c00070081
:102560000000e00004003a00888f540005003200ab
:102570008904d100f5ff3700091878009fff070094
:10258000d2ff37000000eb004f04be000000060041
:10259000881f7800630440000800a1008000eb0061
:1025a000800f540021003600e30f540001003e006c
:1025b0004800200008007800c2ff07008000eb0000
:1025c0000000e000190032009000780091017800ce
:1025d00064815100880f5100030031001101900007
:1025e00002087800070037000881400002087800e0
:1025f0009101900013019800100178001109140056
:1026000088087800100178000000eb000200e0006c
:1026100004003200920190000300e000010032004b
:102620000280e800e06688008180e8000100780010
:102630004f04780000000600800078000101780057
:102640003104e000fdff3a000000510000000600e8
:10265000800078000000eb000100e000050034007d
:10266000010078009cfd0700e10f400001003a00e6
:102670000000eb0000000600881f780002047800cc
:10268000080178004a020700080040004f04780063
:1026900000000600881f780000047800820178009e
:1026a0000101780088007800c0332100060007008f
:1026b0000000e000020035008040eb00017478006b
:1026c0004f047800000006006200fa00889fbe00f8
:1026d0008a1f7800000578008104780002047800e1
:1026e0008300780080f92f000f00400024020700cb
:1026f0009a979f00a9979f000000eb00b09f9f0052
:102700001885fb008a04fb000a05ea004f55de002d
:1027100050022000808f54000d003200e10f550060
:102720000b003a000a017800880078002f9097008b
:102730009f91970003000100a0979f000000e00018
:102740008e0032003f9897000000e800b09f9f0085
:102750000a04440050022000808f5400040032001c
:102760000900e000e6ff3a003f9897008400370038
:102770000000eb00909f9f00809f9f00f0979f00bc
:10278000e0979f00d0979f00c0979f0007003700f9
:10279000c1cb2000010050000000400001cb200010
:1027a00061007800df98970001007000d09f9f00c3
:1027b0008804780009047800384578008a00fb0016
:1027c000c0cb2000df0107000000e000f0ff3a006e
:1027d000a1c2b300814f55000e003a00cf88970088
:1027e0000180e900c08f9f0010007800c09f9f000b
:1027f0000000e00005003d000000ea00c09f9f00cf
:102800005f9897000020a000d09f9f000904e80077
:102810000f003700c09f9f000000eb00050037004d
:10282000f2ff2700820f5000020032006a01b90057
:10283000028040000904780088047800b900fb0099
:102840000103b100e98f5000f5ff3600c09f9f00e3
:10285000e0c2b300984f1000020032000080eb008d
:1028600019003700a0c2b300d84f100007003a008b
:10287000cf8897000180e900c08f9f00100078008a
:10288000a09f9f000804e800100037000000eb0044
:10289000a09f9f008800780005003700f3ff270005
:1028a000830f5000020032006a02b90004004100a8
:1028b00001047800880078003101fb000203b100b8
:1028c000e90f5100f5ff3600a09f9f009844780063
:1028d0008900fb0080ca20009a0107000000e00088
:1028e000020032000804e800010037008044eb00d9
:1028f000c97f9f0080c6b30080cf540004003a0017
:1029000098cf14000a003a006640500006003700d5
:10291000c0c6b30080cf540005003a0098cf140021
:1029200003003a0065404000c07f9f000804e800b3
:10293000e3fb2f008f8141001841780081f92f00bf
:102940008f804000a0f92f000f004000100007000a
:102950000000e00009003a00e1fb2f008f804000fa
:10296000a0f92f000f004000ea0407000000e0007b
:10297000020035000804e80061ff37000080eb002a
:102980004f0578004f04be000080fa0000000600ea
:10299000889fbe008a1f7800000478008244780077
:1029a0000305780070c6b30080cf540021003c00be
:1029b00000c0e90080cf5400d5003d0072405000b7
:1029c00080cf54003c0132000d003c006c405000b0
:1029d00080cf54004f013c0000c0e90080cf54007c
:1029e000cb003d0050c2b30080cf540046013200fe
:1029f0007c40400080cf540046013a00c4003700bc
:102a000010c6b30080cf5400c100320004003c0067
:102a10006940500080cf54003e013a006900370001
:102a200030c6b30080cf5400180032000040e800e8
:102a30000900370000c7b30080cf540010013200f6
:102a400008003c0000c0e90080cf5400d9003200eb
:102a50005c003c006540500080cf54002d013a00de
:102a60000f00370050c7b30080cf5400550032002c
:102a70006340400080cf5400520032006540500057
:102a800080cf540023013a000b0137001181e90087
:102a900082087800780090001275780023013700d2
:102aa00028609000c2c6b300824f500007003a0071
:102ab0001101780064005100800878001000be0009
:102ac0004f89de00820178001400370012c7b3007e
:102ad000824f500003003a00110278006800520053
:102ae00005003700a2c6b300824f500006003a002e
:102af0009102780068805200800878005001be0082
:102b00004000be00050037001180e9008008780011
:102b100010007800cf80de006109b900009cbe0083
:102b20000294be002862900085c6b300854f520013
:102b30000d00320025c6b300854f520004003a0054
:102b40000000fb00cf80de006109b90008003700fb
:102b500045c7b300854f520003003200e6c2420071
:102b6000854f520004003a00cf80de006109b900b1
:102b7000009cbe000294be003802be002803be00c6
:102b800078009000d1c2b300e00f5200e08f5a00ed
:102b9000e00f5b00e08f5b000800350088109000bc
:102ba0000118a30002003200b1c2b30003003700d5
:102bb0000108a3005100320001c2b3000175780082
:102bc0004c00370028609000c2c6b300824f50000e
:102bd00008003a0011037800640053008008780070
:102be0001002be006033b8000400be000601be0043
:102bf0001400370012c7b300824f500003003a00a0
:102c0000910278006880520005003700a2c6b30028
:102c1000824f500006003a0011037800680053000c
:102c2000800878005001be004000be00050037005b
:102c30001180e90080087800100078008000eb0027
:102c40006011b800009cbe000294be002862900093
:102c500085c6b300854f52000d00320025c6b30073
:102c6000854f520004003a000080fb008000eb001a
:102c70006011b8000800370045c7b300854f520007
:102c800003003200e6c24200854f520004003a00c1
:102c90008000eb006011b800009cbe000294be00f2
:102ca000081090000038a300140032003800be0065
:102cb0002801be00e00f5000e08f5800e00f5900df
:102cc000e08f59000d00320080c7b30080cf540060
:102cd0000300320080c5b30080cf540007003a00e3
:102ce0007800900001c3b300017578000000e8008f
:102cf000097578000000e8007004980078009000e2
:102d0000000545006a049800894078006700370094
:102d100028619000c0c4b300804f510006003a0003
:102d20009103780068805300800878005001be004d
:102d30004000be000500370011017800640051001a
:102d4000800878001000be007e070700009cbe00cf
:102d50000294be00b8009000780090000100e000ee
:102d600002003d00d1c2b300080037008810900077
:102d70000118a30002003200b1c2b3000300370003
:102d80000108a3000400320001c2b30001757800fd
:102d90000000e800700498007800900000054500ed
:102da0006a049800894078000800780087000700ce
:102db0006000370028619000c3c6b3001180e900ad
:102dc000834f5100220032000a003c00e4c1510050
:102dd000834f51002500320083c1e800834f51002a
:102de00013003200e8c15100834f51001e003a0029
:102df0000a00370043c7b300834f51001b00320065
:102e0000e6c14100834f510018003200e9c1510072
:102e1000834f510014003a00050037008008780005
:102e200010007800485c90000848780041003700a6
:102e30008008780010007800680a9000cfa2de00b9
:102e4000612bb9000498be000690be00390037001f
:102e5000800878001000780068099000cf91de00ab
:102e60000288be00330037001180e9008008780036
:102e700010007800680c9000080878002d003700da
:102e80001180e9008008780010007800cf80de0013
:102e90006109b900009cbe000294be007800900059
:102ea000000545006a04980081c7b3000800780057
:102eb000690207001f0037001180e90080087800d0
:102ec000100578006a049800d80c90000900e00012
:102ed00004003d000a007800d7fd07008004780058
:102ee00007003700090178008000eb000a00780035
:102ef000250007000000e000010032008a045000b5
:102f0000190c98000b0037007800900009757800c4
:102f10000600370078009000000545000904e00035
:102f200001003a0059c2b300094d78000000e800e2
:102f3000700498000000eb004f0578004f04be00bd
:102f4000000006000001eb00030037000201e8006a
:102f50000404e000070032006103b8006112b80009
:102f60008601420066427a00814f5200f7ff3a0024
:102f7000010037008001eb0003007800000006002c
:102f8000010878000000060003003700b0cf1000f1
:102f9000050032000201e900800178000200e00033
:102fa000faff3a0000000500030078000000060068
:102fb0008001780002003700b15978000201e90071
:102fc0000200e000fcff3a0000000600cf04b00061
:102fd000889fbe008a9fbe008c9fbe008e1f780017
:102fe00000067800814678003c00be002c01be003f
:102ff000d0979f00e1979f00f2979f00839f9f00cb
:1030000010c6b30080cf56001200320010c4b300c7
:1030100080cf56000f0032005c0890000000e000f6
:1030200002003d0060002000090037000000e000c1
:1030300008003a0070c6b30080cf5600030032008b
:1030400070c4b30080cf560002003a001000200088
:10305000500e98008c00780080fa2f000f0040007e
:10306000d3010700e20f50000f003a0030002000ab
:10307000100e980000a2200011c6b30081cf5600a8
:1030800019003200e4c0400081cf56001600320023
:1030900040a220008140e80081cf560012003a0093
:1030a00000a22000100037000000e00014003400ef
:1030b00030002000100e980080a2200011c6b3003e
:1030c00081cf560008003200e4c0400081cf560096
:1030d00005003200c0a220008140e80081cf5600e8
:1030e00001003a0080a22000ec009000b048780077
:1030f000b06878001040780090409800a601370032
:1031000011c6b30081cf56000300320011c4b300d2
:1031100081cf56000e003a00ec00900002c3b300cd
:10312000825878006106980082c5b30013c6b300c8
:1031300083cf560001003a0082c7b300825878005e
:1031400061069800fc0090008180e80071069800fc
:103150000000e00005003a00c0979f008001eb00ee
:1031600022fb2f000f0141008701370010c6b3007a
:1031700080cf56000600320010c4b30080cf560046
:103180009a003a0011a42000d1b79f000200370036
:1031900002a32000d2b79f005c0890001b02200011
:1031a0000000e000010035008005e8000b05e800a4
:1031b0006022b8006033b8005f909700ef909700ee
:1031c0007f9197008f999700a6050700000278006d
:1031d0003c00be002c01be000400e00001003d00e8
:1031e00003f0a200d0979f00e1979f00f2979f0005
:1031f000839f9f00cf919700e4815100c3979f0068
:103200000040eb00a0779f003efb2f000f07470018
:1032100031003700c201200003002000a0fa2f0077
:103220000f004000d80307005f909700ef909700d1
:103230007f9197008f99970090b79f00a1b79f004b
:10324000b2b79f00c3b79f005d0607000004be0031
:10325000670555004240a9000c00340084060700b1
:103260000002be000203be001fb09700afb097007f
:103270003fb19700cfb19700f7060700d0979f00a6
:10328000e1979f00f2979f00839f9f006707470089
:1032900070002000050037006f676400cc48dd0037
:1032a0004444de0008847000c4ccde00e00f54000b
:1032b000e08f5c00050034000000e900e10f4000f1
:1032c000f5ff3a00010037000067eb000000e9005d
:1032d000fdff3b00670747000a00e00009003400db
:1032e0006022b8006033b8005f909700ef909700bd
:1032f0007f9197008f9997005f0507000000e0001d
:10330000c4ff3c0032fb2f000f01410002075700b1
:103310008e0178008b0f5700010034008b0178007c
:103320000300e0002b0035000040eb008e8f5100c1
:103330000a003d0082fa2f000f0141000300410006
:10334000b0489000f0c0b300e7cf500003003c004d
:103350000040eb0001003700810178008300e900a4
:1033600034fb2f000f02420001014200124278009c
:10337000804f5200f8ff3200ef4f500001003a003a
:103380000449e8000100e00007003d008301e80077
:103390004f90970064004000c0979f0022fb2f00d1
:1033a0000f0141000200370032fb2f000f014100e6
:1033b0000300780005003700e24078008100fb0040
:1033c0005fb29700e4c07800017178000000e90066
:1033d000f9ff3b005c0890000000e000ea003d00bf
:1033e0000300e900500e9800e70037005f94970053
:1033f000ef9497007f9597008f9d97006022b8000b
:103400006033b8000800be000a01be0015050700c1
:103410000000e00005003d000bf0a200d8979f00df
:10342000e9979f00fa979f008b9f9f007059270094
:10343000cf9097000088b900026a2800130020008e
:103440006c05070064045000c8979f0015003b00fe
:1034500063041400c0ff2f00000464000800ea00a9
:10346000c0979f005f909700ef9097007f91970023
:103470008f9997002aa52000070037000808a300ad
:10348000030032003a02be002a03be00fc0507001a
:103490000884d100680545000800e000f7ff3c0003
:1034a0001a0037000800e0001c003200c0ff2f00a7
:1034b00000046400c8979f002aa520006000b8009f
:1034c0000200200003ff2300070037000808a300c4
:1034d000030032003a02be002a03be00e8050700de
:1034e0000884d100680545000800e000f7ff3c00b3
:1034f0000002be000203be005f909700ef909700ad
:103500007f9197008f999700e0040700d0979f0064
:10351000e1979f00f2979f00839f9f005c0f9000b0
:1035200060c6b30080cf5600040032006000200067
:1035300061c4b30081cf560002003a00cf909700db
:103540006a8040000e074000f30f5700010034006e
:103550003e01200000c3b300a0779f003bfb2f007b
:103560008f854500350037005fb09700efb09700ba
:103570007fb197008fb99700910507000004be0046
:10358000680757004240a90010003400b805070042
:103590000002be000203be005fb09700efb09700cc
:1035a0007fb197008fb997002b0607006022b80003
:1035b00046782d0077192400b1050700d0979f00a9
:1035c000e1979f00f2979f00839f9f00e885450049
:1035d0008a0020000801be000c003700a400200073
:1035e00005002000a0fd2f000f004000850207000d
:1035f0005fa89700efa897007fa997008fb1970069
:1036000004c3b300846541000001be00e00f510017
:10361000e08f5900060034000a05e900e10f45007b
:10362000eeff3a000200370000c3b3008065780067
:103630000a05e900fcff3b00e88545000e00e000bc
:103640000d0034005f909700ef9097007f919700f6
:103650008f999700d0b79f00e1b79f00f2b79f0006
:1036600083bf9f006022b8006033b8008204070067
:103670000000e000bcff3c0031fb2f008f804000c9
:10368000818555004f91970067004100c0979f00ca
:10369000020037008b05e9000000e9000101780015
:1036a0008200780003c3b300b1cf1100f9ff3200ec
:1036b000c0979f00dc09900061c6b30081cf56001f
:1036c0000300320061c4b30081cf560002003a000b
:1036d0000000e800090037001000200051c6b300c8
:1036e00081cf5600050032000d40780050c4b20072
:1036f0000080fb000000e9004f00de008301400075
:103700008b8f5100010034008b0178000300e00032
:103710001d00350000c3b3008b8f510006003d0033
:1037200062c279006940400041c3b300814f52003a
:1037300001003c00694050008300e9008100410025
:1037400001003700840178000302e90001037800da
:10375000a142780080cf5200faff320091c3b3003b
:10376000814f500001003a00054be8000400e000e2
:1037700005003d000201e9008301e8004f92970037
:103780000402e800c4979f004f9297008d40780094
:103790000c007800f60207004f0778004f06be00c5
:1037a0004f05be004f04be00cf04b100000006006c
:1037b000889fbe0000047800e68440001900d00015
:1037c0004500de00f27f2000820f500010003a001a
:1037d000000ceb00990478006f8164002000200049
:1037e0001b003a00210190000200e00018003a009e
:1037f000110190000200e00015003a0010002000c6
:103800001100e000120032002000200010003700fc
:103810000000e00004003a00010078000e020700fa
:103820000000e00008003c00f200280019016100df
:1038300001fe2300810c710021c02f00010c40000b
:103840000080eb0002003700000ceb000000eb00f2
:103850004f04be0000000600fc874700889fbe00a2
:103860008a9fbe008c9fbe008e1f780000067800e5
:1038700080c5b30080cf50000a003200774040007e
:1038800080cf50000a0032006940400080cf5000d5
:103890000b00320070c9200080bf9f00ae002000e6
:1038a0000a00370062c8200082bf9f000600370070
:1038b00073c9200083bf9f008e00200003003700e3
:1038c00074c9200084bf9f000e0120003c02be008e
:1038d0002c03be000605be000404be0040c6b300b3
:1038e00080cf5000030032006540400080cf500080
:1038f0000b003a00e00f5200e08f5a00e00f5b002f
:10390000e08f5b0006003d006000b8006011b80069
:103910000404500085845800060559008785590025
:10392000e80f57000400320040002000f00f57005d
:1039300038003a000100370030002000e00f54004a
:10394000e08f5c00e00f5d00e08f5d0004003a0056
:10395000dc0890008d0120000100e000060032002c
:103960008e00e900888060008fba9700e5c078007b
:10397000f1ef9f007d012000800078008100e900c8
:10398000050033008b05d1000a85d3008984d3005c
:103990000884d300f9ff3700089ebe000a96be00d7
:1039a000120037008d06e9008e00e9008480600077
:1039b0000fb99700e2c1780082fd2f000f0141008e
:1039c00003f17e00800078008100e90005003300eb
:1039d0008783d1000683d3008582d3000482d3007d
:1039e000f9ff3700049ebe000696be003c02be00f2
:1039f0002c03be00e00f5200e08f5a00e00f5b0086
:103a0000e08f5b008b0034000d00e000e5ff3c0020
:103a1000880037002c60900081c6b300814f5000b1
:103a20000b00320006003c000004e00008003200f9
:103a3000e6c05000814f50004e003a0004003700ad
:103a4000c1c6b300814f50004a003a002100370040
:103a50000800e00004003a005c0890008d0120009e
:103a60000000e00006003200110009000e84d800ba
:103a70000fb99700e2c07800f1ef9f007d012000b0
:103a8000110009000e84d8000a0037001100090057
:103a90000e04d8008d06e9000e81b900020454001e
:103aa0008fb8970061417c0081fd2f008f8040001e
:103ab00082f07e00000478000800e000020032007e
:103ac0000d00e000f1ff3c00cfc4de00614db90005
:103ad00025003700e00f5400e08f5c0004003a003e
:103ae0005c0890008d0120000000e000070032001b
:103af0006171b9000800be00e90407008fb99700a2
:103b0000e3417800f3ef9f007d0120006171b9006f
:103b10000800be00d20407000b0037006171b90035
:103b20000800be00b30307008d06e90000f1b900ec
:103b3000020454000fba9700e4427c0084fd2f0079
:103b40000f02420005f27e000004be00e00f5000ac
:103b5000e08f5800020032000d00e000efff3c0053
:103b60004fcdde008a057800089ebe000a96be0092
:103b700030003700e00f5400e08f5c00e00f5d0084
:103b8000e08f5d0004003a005c0890008d01200089
:103b90000000e000090032006172b900612bb90039
:103ba0000800be000a01be00660507000fba9700b4
:103bb00064427800f4ef9f007d0120006172b9003b
:103bc000612bb9000800be000a01be0056050700bf
:103bd0000d0037006172b900612bb9000800be000a
:103be0000a01be005b0507008d06e90000f2b9007e
:103bf000040454008fba970065427c0085fd2f00b5
:103c00008f82420084f27e00009ebe000296be00bb
:103c10003c04be002c05be00e00f5400e08f5c00a9
:103c2000e00f5d00e08f5d00020034000d00e00059
:103c3000e8ff3c00e80f570010003a000c1090001d
:103c40000038a3000d003200f78f560006003e003a
:103c500085fd2f008f824200e5c07e0000c3b300c7
:103c600080cf5000050032008d06e90002c3b3008a
:103c700081fd2f008f80400082f07e007881160049
:103c8000120e98006c00900083fd2f008f81410080
:103c90008d804100c6fc07001c089000dc089000e5
:103ca000810f500006003d0000805000000e98007b
:103cb0000c1090000040a100001698000f00370083
:103cc0000100e0000d003d008c109000f4806000c9
:103cd000f08f500009003a007c099000fc00900031
:103ce000810051000c09900082805000008050003b
:103cf0004240a90001003400000e98004f077800f0
:103d00004f06be004f05be004f04be00cf01b100fc
:103d1000000006000400fa00889fbe008a9fbe00d3
:103d20008c1f78000004780001067800f80d9000e0
:103d30007800900080855500080890008085550027
:103d4000180890008085550028089000808555004f
:103d500038089000808555004808900080855500ff
:103d60000002220090bf9f0000032300a0bf9f001d
:103d7000081090000028a30015003a000b00e00096
:103d8000130034000b0578008a047800e20f550018
:103d90000100360029002000c801900009017800c8
:103da000ee80570058009000030001005004980076
:103db0000000e0008c00320068089000090040001c
:103dc000600c9800090555004240a900eeff3c0038
:103dd000780190000200e0000c003400c80190005f
:103de0008c007800580090000300010050049800f7
:103df0008080eb000000e0007c003200e8089000ca
:103e00007800900000804000600c9800880c9000c2
:103e10000900e0001100340009057800e28f540029
:103e2000010036002a002000c80190000a01780035
:103e3000ec805700580090000300010050049800e7
:103e40000000e00068003200680890000a004000ae
:103e5000600c98008a845400edff37001809900028
:103e60000200e0000c003400c8019000e80090005f
:103e70005800900003000100500498008080eb007f
:103e80000000e00059003200e80890001808900097
:103e900000804000600c9800a80c90000900e00031
:103ea0001100340009057800e28f5400010036004b
:103eb0002a002000c80190000a017800ec80570019
:103ec0005800900003000100500498000000e0003a
:103ed00045003200680890000a004000600c98001d
:103ee0008a845400edff3700380990000200e0009a
:103ef0000e003400e8009000180890008080400018
:103f0000c801900058009000030001005004980080
:103f10008080eb000000e00034003200e8089000f0
:103f20003808900000804000600c9800c80c900099
:103f30000900e0001100340009057800e28f540008
:103f4000010036002a002000c80190000a01780014
:103f5000ec805700580090000300010050049800c6
:103f60000000e00020003200680890000a004000d5
:103f7000600c98008a845400edff37000810900010
:103f80008000eb000028a300180032000b00e000c6
:103f9000160034008b04780009057800e28f540085
:103fa000010036002a002000c80190000a017800b4
:103fb000ee80570058009000030001005004980064
:103fc0000000e00008003200680890000a0040008d
:103fd000600c98008a8454004240a900eeff3c0027
:103fe0008000eb00010037008080eb0001007800ca
:103ff0004f0678004f05be004f04be000080fa0057
:1040000000000600881f78008a9fbe008c9fbe00bb
:10401000000478000205be000406be000401be00d4
:104020000a00be0073020700008cbe000c01be0037
:104030009e0307000005550081855d002a04980055
:104040003b049800080078004f06be004f05be00f4
:104050004f04780000000600e600400011017800df
:1040600005002800850261006f0161008208780068
:10407000020032001200200011003700a001900061
:10408000120020000300e0000d003a0090019000b3
:104090000300e0000a003a001000e00008003a00c7
:1040a00036003700640340009608780080017800ed
:1040b000530b7800900978000408780070015100d3
:1040c000110278000400e000f6ff32001300370010
:1040d00064024000140378004f33de008381410006
:1040e0008308730080017800d3037800cf3bde00a3
:1040f0001403780006034300068a73001302780055
:1041000004024200100378004f33de00860972007b
:1041100090017800038841000201e90091017800d4
:10412000ef8f5100eaff3600100037008001780061
:10413000530378004f33dd001002d10004087300f0
:104140006402400094037800cf3bdd001303d100ec
:1041500086897300110378004f33dd009401d1008c
:10416000030a73009108d1000201e8009101780070
:10417000ff8f5100edff3e00ef88610091887200d3
:1041800002007800000006000400fa00889fbe00cc
:1041900000047800e6044400190078008000d00094
:1041a000c508de00f47f2000848f50000e003a0026
:1041b000ef006000200020006a003a00a800900094
:1041c0000100e00067003a00980090000100e00064
:1041d00064003a00100020001800e0006100320086
:1041e000200020005f0037000100e0000a003a00d4
:1041f00008007800c2bf9f00d3bf9f0096ff070052
:10420000800078000000eb004fb99700dfb99700fd
:104210000100e00053003c004f88de0002814000b6
:1042200083014800e07f2000800f5100e08f59009b
:104230000c0034006000b8000200200003ff2700db
:104240001900e00003003d006000b80002002000fb
:1042500003ff2f00009cbe000294be00100020004f
:1042600040003700e00f5100e08f59000500340096
:104270004411dd00f000280019006000800c71007e
:10428000370037001900780004002800040260009d
:104290006f0060000040a000800c7800d0fc2f0070
:1042a000f1ff2f00800f5100818f590006003d0063
:1042b000840c78000000eb002004980010049800a3
:1042c000000ceb00270037006f01410006003700ab
:1042d00008007800500c7800e400440011087800d1
:1042e00099087800800ceb007000510070014100cb
:1042f00001fe2f0082804000ef8f4000f4ff350068
:104300000000ea00150032008800780070011000fb
:10431000d1027800822add00980178008019de0041
:10432000038c72006404440098027800822add0045
:10433000910178008019de0083887200990078006e
:104340000209dd00980078008008de00010c710091
:10435000990078000008de00800c7800990c72004b
:104360000080eb004f04be000080fa000000060051
:10437000f0874700889fbe008a9fbe008c9fbe00ca
:104380008e1f780000047800814478000205be008a
:10439000040678000b00e00002003c001b00200037
:1043a0002ace200060c6b30080cf54000e00320039
:1043b00060c4b30080cf54000b00320070c6b3005d
:1043c00080cf54000300320070c4b30080cf54008b
:1043d00099003a00e40f46007f003500580890002d
:1043e000800f56007c003d000c06e80060c6b3005c
:1043f00080cf54001000320060c4b30080cf54005e
:104400000d003200081090000038a30004003a00ac
:1044100058089000808f550001003d005b0c98000b
:10442000580890000c005000500c980002003b000f
:104430000000eb00500c980018089000e800900075
:104440000c00e00026003c0002c3b300827078003c
:104450000000e800100c9800d80890000100e0006f
:1044600003003c00881090000138a30005003200d2
:10447000e8009000e2c2b300827078000000e8001b
:10448000100c9800580890008c00ea00810f500032
:1044900001003d000006ea008c00ea00210c9800b3
:1044a000000646005c0c98008b0f5600010034009b
:1044b0000b0678003c0c9800e8009000180890006b
:1044c000008040000c0178008a007800b8fa0700ec
:1044d000580890000c0650004c0c9800be003700a5
:1044e0008c8f550018003d00008040000b017800c3
:1044f0008a007800aefa0700180890000080450096
:10450000100c98008b0556002b0c9800d8089000d2
:104510000100e00003003c00881090000138a30077
:1045200006003200e8009000e2c2b300827078001a
:10453000380890000000e800300c980058089000ff
:10454000400c9800a4003700008040000c01780067
:104550008a00780096fa07001808900000004600cc
:10456000100c98008c855500d80890000100e000e0
:1045700003003c00881090000138a30005003200c1
:10458000e8009000e2c2b300827078000000e8000a
:10459000100c980058089000808f550001003400de
:1045a00080057800e8009000180890000080400026
:1045b0008c0045000b0178007dfa07001808900078
:1045c0000b004000100c9800580890008b0550001c
:1045d0002b0c98008000370070c6b30080cf5400c9
:1045e0000300320070c4b30080cf540012003a00c0
:1045f00058089000808f550004003d00081090007e
:104600000038a30001003a005b0c980058089000a5
:104610000000e900500c980002003b000000eb0095
:10462000500c980070c6b30080cf540009003a00c7
:1046300059c6b3000c00370010c6b30080cf540039
:104640000600320010c4b30080cf540006003a00c8
:104650000400370059c4b3000300370009c7b30092
:104660000100370009c5b30018089000e800900069
:104670009a7078000000e800100c9800d8089000ac
:104680000100e00003003c00881090000138a30006
:1046900005003200e8009000e2c2b30082707800aa
:1046a0000000e800100c9800580890000000e0009e
:1046b000100034008b05e900808f550001003400a4
:1046c00080057800e8009000180890000080400005
:1046d0008a00e8000b01780035fa070018089000fe
:1046e0000b004000100c9800580890008b055000fb
:1046f0002b0c9800e8009000180890000080400003
:10470000095878000005e8000c00e00004003500be
:10471000b1c2b300014878008a067800040037006f
:10472000d1c2b300014878008a0678000c06ea007e
:10473000fd8557000007eb0009003700a2002000ac
:104740008c007800728057003b0007007fb0970014
:104750008fb89700816d7800000678000e07e8009a
:104760000c00e000f5ff3c00e10f570013003c0097
:1047700050c6b30080cf54000300320050c4b300d1
:1047800080cf540003003a008a06780000c3b300cb
:10479000805e78000e00e00008003a0000c3b3001d
:1047a000805e7800050037000e07e900fc805700a6
:1047b00061407f0002c3b300825e40000e00e00053
:1047c000f9ff3c00e80090001808900000804000cd
:1047d000808656003d0c9800081090007400600020
:1047e000f00f50000e003a009808900078009000fa
:1047f00000804000a808900001004000b808900028
:1048000001004000c808900001004000f808900036
:10481000810f500002003d0000805000000c980005
:104820004f0778004f06be004f05be004f04be0084
:104830000f01b1000000060080027800010378003b
:10484000110009000203d80080017800830a780073
:104850000299b90002015300920298000500780005
:10486000000006008f1fd100170307008f87e900a3
:104870000000e00000000600809feb00120307002c
:104880008f87e9000000e000000006002800fa0021
:10489000889fbe008a9fbe008c9fbe0003866b006f
:1048a0008f0007006400e100440032006408e1006a
:1048b0004a0032006100e100460032006108e10078
:1048c00049003200ec0647006000b8003d02be001f
:1048d0003d03be00f48657006011b8003d04be00e1
:1048e0003d05be007d0320000b0037000000a00046
:1048f0008d06e900130032000402420085824a005e
:1049000006034b0087834b00000040008180480075
:1049100002014900838149000802520089825a003d
:104920000a035b008b835b00f0ff3b000802420040
:1049300089824a000a034b008b834b008d06e900f5
:10494000edff3a008482720086827200f707b2009f
:104950008782720001003200150020001e049000c2
:104960003e0b900006035400e63fb0000368a3002e
:10497000070032000000a7000500a0008301d1005d
:104980000281d3008180d3000080d3000603e800b9
:104990008301d1000281d3008180d3000080d30045
:1049a0000002eb000482d2002100070003f0a10006
:1049b0000cf0a70003f0a0005d0037006402470080
:1049c0006408e100570032003400be003401be002c
:1049d000f6ff37006108e100520032006011b800b4
:1049e0006000b800f1ff370003ff2700020020003d
:1049f000fbff3700839f68000100e00002003d00dc
:104a000060001000e08018000300e00002003d009c
:104a100060011100e0811900110107004f00e00062
:104a200002003b0060001000e0801800000006005b
:104a30001800200057002000080453000d003d001e
:104a40000600200097fc2f000740e1001e00340004
:104a500084827200610260008301d1000281d30070
:104a60008180d3000080d3000804e800f8ff3a00fa
:104a70004700200061046000050474000404640021
:104a80000d00320061004000e080480060014900f4
:104a9000e081490003b8a500070032000603e800e2
:104aa0006538e10004003a008301d1000281d3009f
:104ab0008180d3000080d300f87f20000830e1001f
:104ac00003003500080378006000b8006011b800ea
:104ad0004433dd00f300b2008301730000000600e0
:104ae000680447000294be000094be00fc04470026
:104af0008694be008494be0009007800bb020700c3
:104b000008007800b902070099007800814f700012
:104b10000b003b000800be00940207004f00b100ec
:104b200003003700f3ff2700f2ff2f006110b900e8
:104b30004f06be004f05be004f04be000080fa00c5
:104b4000000006008103780071f507000001be0037
:104b50006000b8000478a30013003a006220e1006e
:104b600015003e000d0039008301d1000281d30001
:104b70008180d3008301d1000281d3008180d300e2
:104b80008301d1000281d3008180d3000538b000b9
:104b9000c42add00f300b2008381720007f0a70091
:104ba00003f0a00000000600f3ff2700f2ff2f0033
:104bb0006110b900fbff370003ff2700f7ff370044
:104bc0001400fa00889fbe008a9fbe008c9fbe0022
:104bd0000004be000205be00680047000a90be0047
:104be0000890be00810207000070a7000bf0a10032
:104bf000304320009e02900080825200b0fe2f00c1
:104c00000028e10011003d00b0fc2f000028e10069
:104c1000150034001e0990008e0890007e00900060
:104c20000501b0000201d1008180d3000080d300d3
:104c30008502e800fbff3a000b00e000bcff3b00f0
:104c400060001000e0801800b9ff3700f0ff2f006f
:104c5000f1ff27000b00e000b5ff3b00010028003a
:104c600000002000b2ff37006000b800b0ff37003e
:104c70004f89de00820178008302370000000000c7
:104c80002800fa00889fbe008a9fbe008c9fbe004d
:104c900003866b0092ff07000028a30064003a001f
:104ca0000128a30067003a000008a30062003a0050
:104cb0000108a30065003a001e009000be089000a5
:104cc00081064000ed3fb100f4805700ee019000f6
:104cd000111ab8008e099000311bb8009e0990008f
:104ce000311cb800511db800f4855700460007007c
:104cf000fe0190003a0007008b85e8003e000700a7
:104d00008e09900040000700ee019000340007007b
:104d10008b85e800380007008e09900040000700ee
:104d20009e0990001b18b800890440000a854800bd
:104d3000fe019000340007008b85e8003800070072
:104d4000ee019000300007008e0990001b18b8009b
:104d5000890440000a8548000a98a30008003a0028
:104d60000402420085824a0006034b0087834b0001
:104d700008044c0089844c000a054d008d06e900aa
:104d800084827200850273004c3add008502720055
:104d90000100320015002000443ade001400b20089
:104da0004538de00cb45dd000b007000c540de005d
:104db000cb4ddd008b8070004549de00cb55dd001a
:104dc0000b017100c551de000d03780018ff0700cc
:104dd00003f0a1000cf0a70003f0a00054ff37007f
:104de0001b18b8008502400006834800e0834b0092
:104df00060044c00070037001b18b8000603400091
:104e000087834800faff37001b18b800870340006b
:104e100008844800e0844c0060054d000000060056
:104e20001b18b8000804400089844800faff3700c6
:104e30000108a3003bff3a005800be005801be0025
:104e4000e3ff37000008a30036ff3a0009047800aa
:104e5000f9ff37000000000007f0a2001c01370036
:104e60006022b800060220000000d0008180d2003d
:104e70000482d2008582d2000000a000020252000b
:104e800083825a00030031000202420083824a00fa
:104e90000000a1000603e900f3ff3a00000006004d
:104ea000efff07000400be0000000600020ab90080
:104eb000001bb9000200b8008100420081004300dd
:104ec00000000600889fbe008a9fbe00300442009a
:104ed000b0844a0030054b0090854b006000b10063
:104ee0000898be000a90be000440e10005c8e10039
:104ef00006d0e10007d8e100020031006800400060
:104f00001008e8004f05be004f04be000000060078
:104f1000889fbe008a9fbe003004be002005be00f0
:104f20000418540005985c0006185d0007985d00a1
:104f3000110020000440e10005c8e10006d0e100b6
:104f400007d8e100010039008000eb001088100054
:104f50004f05be004f04be00000006001200fa001c
:104f6000889fbe008a9fbe008c9fbe00e0b79f0056
:104f7000f1b79f0082bf9f0093bf9f000605be0050
:104f80000404be000000eb00d0b79f00c0b79f0034
:104f9000b0b79f00a0b79f0090b79f0000067800b1
:104fa0005fb19700cfb09700820141003fb09700fa
:104fb0000200e00004003d00370007007e8057003b
:104fc000c0ff070003003700330007007e80570052
:104fd000cfff0700dfb697000d00e0000c003500a2
:104fe0006fb29700ffb297000fbb97009fbb97006f
:104ff00010002000010020006011b80000027200c3
:105000008182720002037300838373001b00070018
:105010000c06e80001042000810f5600e0ff3a0072
:105020000d00e00004003d000802be000a03be00bf
:105030007e805700a3ff07005fa897000000e000f4
:1050400005003a001fb29700afb297003fb3970038
:10505000cfb39700090007006fb09700ffb097002b
:105060000fb997009fb997004f06be004f05be00cd
:105070004f04be000080fa00000006000100070097
:1050800000000600a4b79f00b5b79f00c6b79f00f9
:10509000d7b79f00000006004f09de008281710033
:1050a000b3b79f004f01de00818040008280700016
:1050b000a1b79f008fb097004f09de0000004000ad
:1050c0000200700090b79f007fa897004f01de009c
:1050d000818040008280700081b79f000d00070032
:1050e0004f3ade000000400004007000f0af9f0067
:1050f000080007000402420085824a0006034b00b4
:1051000087834b00dfff07000802be000a03be00d2
:10511000000006002fb29700bfb297004fb3970070
:10512000dfb3970000000600881f780018002000f9
:10513000881f780089ff07008f87e9004f047800f7
:1051400000000600801feb0084ff07008f87e90046
:1051500000000600889fbe008a9fbe00e00f50003e
:10516000e08f5800e00f5900e08f59000c003d001f
:105170006044b8006055b8000000540081805c00b5
:1051800002015d0083815d0018002000150007000a
:1051900008003d00180007000004eb000500370080
:1051a0000004eb000f00070002003d0012000700a2
:1051b00018002000dcff07000800e00006003200b5
:1051c0006022b8006033b8000000520081805a00ad
:1051d00002015b0083815b004f05be004f04be00ef
:1051e00000000600e00f5200e08f5a00e00f5b0065
:1051f000e08f5b00000006006044b8006055b80016
:105200000402540085825c0006035d0087835d0014
:1052100000000600889fbe008a9fbe008c1f780099
:10522000e00f5000e08f5800e00f5900e08f590068
:105230000d003d006044b8006055b8000000540007
:1052400081805c0002015d0083815d001c00200004
:105250000820e10009a8e1000ab0e1000bb8e10074
:105260000d003d00080037000006eb00e00f520083
:10527000e08f5a00e00f5b00e08f5b0006003d000e
:105280006044b8006055b8000402540085825c0098
:1052900006035d0087835d00aaff07000c00e000a5
:1052a000060032006022b8006033b80000005200ef
:1052b00081805a0002015b0083815b004f06780009
:1052c0004f05be004f04be000000060000000000b5
:1052d0002800fa00889fbe008a9fbe008c9fbe00f7
:1052e00007067800878669000c003b0003047800fd
:1052f0008704780008f0a10009f0a100840f500095
:10530000858f5800860f5900890f5c000300330019
:105310000cf0a20001003a000cf0a100f0fd070023
:105320006400e1005f003200780147006408e1009a
:10533000610032006c014700748557003200be00e6
:105340001201be003a04be001a05be001e03900002
:10535000be0a90008503530006003d000004fd00d6
:105360008104fd000205fd008305fd008703ea00be
:10537000050378000df8a300040032006004140057
:10538000e0841c0060051d00e0851d006022b8005f
:105390007d0320000d38e1008006eb000b00390092
:1053a0004433dd00f300b20083017300390037009d
:1053b000848272000d027800e10664008b85d100c2
:1053c0000a85d3008984d3000884d3008703e900c9
:1053d000f7ff3b0008004000898048000a014900af
:1053e0008b81490004003b0060001000e080180041
:1053f00060011900e08119000358a3000900320080
:105400008d82720084827200610260008301d1008b
:105410000281d3008180d3000080d3000603e8001e
:105420001b0037000348a30017003a000600e00005
:10543000170034000603e9000d00a3000000480037
:105440008180480002014900838149000348a3008c
:105450000f003a000600e000090034000603e900ee
:10546000000040008180480002014900838149001a
:1054700001003a000003eb000348a300f5ff3200ef
:105480006022b800020037008482720061826600e8
:1054900067fd070003f0a1000cf0a70003f0a000d7
:1054a000a3fd3700640147006408e10002003a00f0
:1054b0000df8a3009bfd3a003200be001201be00b1
:1054c0009bfd370000000000889fbe008a9fbe0041
:1054d0008c9fbe000404be000605be00809fbe0077
:1054e000829fbe002f000700040678000800be005f
:1054f0000a01be002b000700840678004f03be009f
:105500004f02be008d4f76007fb09700130033002e
:10551000f0ff2f008b8f6b0006003b000d0666002e
:105520000c00a7000a00370007f0a60010002000ba
:105530000a003700880f5200898f5a008a0f5b00db
:105540008b8f5b00030039001000200001003e003b
:105550000000200007f0a7000000ea004f06be0090
:105560004f05be004f04be0000000600e48240006c
:105570001078a30007003200640240001178a300f5
:105580003400be001401be00040032000330a70046
:10559000000006003500be001501be000330a0006b
:1055a0000000060005ff27000582610007003200a9
:1055b0000428e10001003200240005000600070075
:1055c00001003a004400050004080500020007003d
:1055d000f9ff3a00140005006f826100810270003b
:1055e00085027100850272000000060080007800cc
:1055f0005002be005003be004439de00f700b20086
:10560000f37f200003016100090032000218e1006d
:1056100016003a00850172008301730083817300d4
:105620000008200015003a00400020001300370059
:1056300085017200830173008381730005003a00c5
:1056400004a8be0006a8be00100020000b00370012
:105650000201e9000402420085824a0006034b0071
:1056600087834b000748a300f9ff32000740a000e2
:1056700004a8be0006a8be002000200080009800fc
:105680009200980000000600881f7800030478004c
:105690000300e00007003d0060001000e0801800fb
:1056a00060011900e081190002003b0001f02d00ab
:1056b000030037000400070008f0a70003f0a00073
:1056c0004f04780000000600889fbe000082700032
:1056d000040271000482710024003200364320006d
:1056e000c50020008383cf000a0039000541b100c6
:1056f0008283cf00070039000541b1008183cf00cc
:10570000040039000541b1008083cf000100390059
:105710000541b10085c353006022b8001200320079
:105720000a003b0084827200610260008301d100a4
:105730000281d3008180d3000080d3000603e800fb
:105740008743e800f7ff3a000700370000004000f9
:105750008180480002014900838149000603e90075
:105760008743e900f9ff3a00b1fc07004f04be008f
:04577000000006002f
:020000040000fa
:1057740041640000635b0000256400005d3a0000a2
:10578400202500006420000030780000252e000051
:10579400345800000d0a0000004300006f69000047
:1057a4006c20000044610000746100003a20000095
:1057b40030780000252e0000345800000d0a000047
:1057c400004300006f6900006c2000004461000089
:1057d4007461000020450000727200006f720000c6
:1057e400212100000d0a00000046000043300000a3
:1057f4003520000057720000697400006520000025
:10580400536900006e6700006c65000020430000cf
:105814006f6900006c0d00000a0000000000000029
:10582400c1c0000081c100004001000001c30000ac
:10583400c00300008002000041c2000001c6000055
:10584400c00600008007000041c7000000050000fa
:10585400c1c5000081c400004004000001cc000068
:10586400c00c0000800d000041cd0000000f0000be
:10587400c1cf000081ce0000400e0000000a0000ed
:10588400c1ca000081cb0000400b000001c9000028
:10589400c00900008008000041c8000001d80000d1
:1058a400c01800008019000041d90000001b00004e
:1058b400c1db000081da0000401a0000001e000075
:1058c400c1de000081df0000401f000001dd000098
:1058d400c01d0000801c000041dc0000001400001a
:1058e400c1d4000081d500004015000001d700009c
:1058f400c01700008016000041d6000001d200004d
:10590400c01200008013000041d300000011000009
:10591400c1d1000081d000004010000001f000005f
:10592400c03000008031000041f10000003300006d
:10593400c1f3000081f20000403200000036000094
:10594400c1f6000081f700004037000001f50000b7
:10595400c03500008034000041f40000003c000029
:10596400c1fc000081fd0000403d000001ff00007b
:10597400c03f0000803e000041fe000001fa00002c
:10598400c03a0000803b000041fb000000390000e9
:10599400c1f9000081f80000403800000028000030
:1059a400c1e8000081e900004029000001eb00008b
:1059b400c02b0000802a000041ea000001ee000034
:1059c400c02e0000802f000041ef0000002d0000d9
:1059d400c1ed000081ec0000402c000001e4000057
:1059e400c02400008025000041e5000000270000dd
:1059f400c1e7000081e6000040260000002200000c
:105a0400c1e2000081e300004023000001e1000046
:105a1400c02100008020000041e0000001a000003f
:105a2400c06000008061000041a10000006300002c
:105a3400c1a3000081a200004062000000660000d3
:105a4400c1a6000081a700004067000001a5000076
:105a5400c06500008064000041a40000006c0000e8
:105a6400c1ac000081ad0000406d000001af00003a
:105a7400c06f0000806e000041ae000001aa00006b
:105a8400c06a0000806b000041ab000000690000a8
:105a9400c1a9000081a8000040680000007800004f
:105aa400c1b8000081b900004079000001bb0000ca
:105ab400c07b0000807a000041ba000001be0000f3
:105ac400c07e0000807f000041bf0000007d000018
:105ad400c1bd000081bc0000407c000001b4000096
:105ae400c07400008075000041b50000007700001c
:105af400c1b7000081b600004076000000720000cb
:105b0400c1b2000081b300004073000001b1000085
:105b1400c07100008070000041b00000005000001f
:105b2400c1900000819100004051000001930000e9
:105b3400c053000080520000419200000196000012
:105b4400c056000080570000419700000055000037
:105b5400c19500008194000040540000019c0000a5
:105b6400c05c0000805d0000419d0000005f0000fb
:105b7400c19f0000819e0000405e0000005a0000aa
:105b8400c19a0000819b0000405b00000199000065
:105b9400c0590000805800004198000001880000ae
:105ba400c04800008049000041890000004b00000b
:105bb400c18b0000818a0000404a0000004e0000b2
:105bc400c18e0000818f0000404f0000018d000055
:105bd400c04d0000804c0000418c000000440000d7
:105be400c184000081850000404500000187000059
:105bf400c04700008046000041860000018200008a
:105c0400c0420000804300004183000000410000c6
:105c1400c181000081800000404000000a0a0000a9
:105c24005561000072740000315f0000577200007b
:105c34006974000065410000737900006e63000020
:105c44003a20000051550000455500004520000051
:105c5400465500004c4c0000210a00000a000000d8
:105c64000a0a00005561000072740000325f0000ef
:105c740057720000697400006541000073790000e8
:105c84006e6300003a2000005155000045550000a5
:105c940045200000465500004c4c0000210a00003d
:105ca4000a0000004f76000065720000666c000078
:105cb4006f7700002c20000070720000763a00001c
:105cc40020250000662000003e200000363500003c
:105cd40035330000350d00000a00000000240000e8
:105ce4007443000000240000f4410000002400007c
:105cf4007440000000240000743f00004b45000085
:105d0400595f0000444f0000574e0000004b000054
:105d1400455900005f4800004f4c0000440000005b
:105d24004b450000595f00004c4f0000434b0000fe
:105d3400004b0000455900005f5500005000000072
:105d44004b450000595f00004f460000460000002c
:020000040000fa
:105d54000400fa00100798000000eb00000f780020
:105d64001e009000e10f50000c003a001e00780065
:105d74009e0090000108780020b12000000f7800f8
:105d84001e00780061b52000410098001e007800d4
:105d940021b62000510098000e0037001e0090002c
:105da400e20f500024003a001e0078009e0090008c
:105db4000108780040b32000000f78001e0078002e
:105dc400e1b62000410098001e007800a1b7200031
:105dd400510098001e0078008000eb000108980034
:105de4001e0078008000eb00110898001e00780067
:105df4008000eb00210898001e0078008000eb0072
:105e0400011098001e0078008000eb0071089800d3
:105e14001e0078008000eb00510898001e007800f6
:105e24008000eb00410898001e00780011c0b30008
:105e34002140980001003700000000000080fa00b3
:105e4400000006000a00fa00100798004147980075
:105e54003207980043079800100280004500de00d6
:105e6400674060000080fb00000f78001102800092
:105e7400000e2000010070001002880000000000e5
:105e84004e4090000004e000140032001e00900018
:105e940050009000100078000000e0000400320080
:105ea4001e009000500090001000780052f107008e
:105eb4004e0090000000e0001b0032004e009000f5
:105ec400b2f10700800078001e009000500090009e
:105ed4004e019000f1110700130037001e009000de
:105ee40040009000100078000000e0000400320040
:105ef4001e00900040009000100078003ef1070062
:105f04003e0090000000e000070032003e009000d8
:105f14009ef10700800078001e0090004000900071
:105f24003e019000dd1107001e007800004078005b
:105f3400674060000080fb00670060004500dd00f2
:105f440012028000f1f12f00810061000100700055
:105f540010028800000000000080fa000000060023
:105f64000200fa00000f78009e0178000001eb00a7
:105f740011c0b30020b12000b2ff07000080fa0076
:105f8400000006000200fa00000f78008001eb0018
:105f94001e0178008040eb0020b12000a9ff07001b
:105fa4000080fa00000006000200fa00000f7800ea
:105fb4009e0178000001eb0011c0b30040b3200043
:105fc400a0ff07000080fa00000006000200fa00ab
:105fd400000f78008001eb001e0178008040eb0088
:105fe40040b3200097ff07000080fa00000006007d
:105ff4000a00fa0010079800210798003207980059
:106004004307980014c0b3001e019000ae01900035
:106014000058220001002000800f5100818f590098
:1060240001003e000042eb00044f7800c713070054
:106034002135800000fe2f0000806000c000b30006
:1060440020358800c982a80061368000f00f2e0038
:1060540080806000003020000100700060368800fd
:10606400c9a2a900c213070021e2a80021a2a90025
:106074002182a9002162a90001118000f0cf2f0024
:10608400008060000011880020e2a90020c2a9005d
:1060940020a2a9002082a9009e40780061c060006f
:1060a4000080fb00610060004300dd0001118000fe
:1060b4000130a1000100700000118800011180006e
:1060c40090ff2f0000806000001188002002a900ca
:1060d4001e4078000004e000110032001e01900010
:1060e400ae0190004218dd00ce10de008100700089
:1060f4004210dd00dbef07000001be00004022007b
:1061040041b7240073ef07000200200003f82300c6
:1061140012ef0700b5ef0700000078001000370009
:106124001e019000ae0190004418dd00cc10de008a
:10613400810070004410dd00caef07000001be00ba
:106144000040220041b7240062ef07000200200053
:1061540003f8230001ef0700a4ef07000000780014
:10616400401188002342a9002362a90023e2a90068
:1061740023a2a90022e2a90022c2a9009560a800d6
:106184009580a9002342a80010002000f0fe07001b
:106194003e0090007bff07004e00900070ff070058
:1061a4000080fa00000006000a00fa0010079800b8
:1061b40021079800320798004307980014c0b300e1
:1061c4001e019000ae019000005822000100200042
:1061d400800f5100818f590001003e000042eb0006
:1061e400044f7800591307003135800000fe2f005a
:1061f40000806000e000b30030358800c9c2a80008
:1062040071368000f00f2e00808060000050200066
:106214000100700070368800c9e2a9005413070019
:1062240031e2a80031a2a9003182a9003162a9009b
:1062340081118000f0cf2f00008060008011880061
:1062440030e2a90030c2a90030a2a9003082a9001e
:106254009e40780061c060000080fb006100600027
:106264004300dd00811180000130a10001007000b5
:10627400801188008111800090ff2f000080600051
:10628400801188003002a9001e4078000004e0005c
:10629400110032001e019000ae0190004218dd0092
:1062a400ce10de00810070004210dd006def0700ab
:1062b4000001be000040220041b7240005ef0700a2
:1062c4000200200003f82300a4ee070047ef0700b4
:1062d40000007800100037001e019000ae0190000d
:1062e4004418dd00cc10de00810070004410dd0095
:1062f4005cef07000001be000040220041b724000b
:10630400f4ee07000200200003f8230093ee0700d8
:1063140036ef070000007800c01188003342a9005e
:106324003362a90033e2a90033a2a90032e2a90032
:1063340032c2a90097c0a80097e0a9003342a80080
:106344002000200082fe07003e0090001fff07008f
:106354004e00900014ff07000080fa0000000600c1
:106364000a00fa00000f780012079800230798002b
:1063740031079800440798001e007800e10f500090
:1063840006003a00ce0190003e0190001e009000ed
:10639400ae00900016ff0700080037001e007800ca
:1063a400e20f500005003a00ce0190003e0190003b
:1063b4001e009000ae0090007bff07000080fa00f2
:1063c400000006000200fa00004f78000000000000
:1063d4001111800000202000008060000000e00017
:1063e400fbff3a001e00fb00201188000080fa0029
:1063f400000006000200fa00004f780000000000d0
:106404009111800000202000008060000000e00066
:10641400fbff3a001e00fb00a01188000080fa0078
:10642400000006000200fa00000f7800101180003e
:10643400620060000000e000020032002222a90095
:1064440001003700000000001011800061006000ae
:106454000000e000fcff3200301180008040780032
:106464001e007800014878000080fa000000060051
:106474000200fa00000f78009011800062006000b2
:106484000000e000020032003222a90001003700bf
:106494000000000090118000610060000000e00036
:1064a400fcff3200b0118000804078001e007800ac
:1064b400014878000080fa00000006000200fa009b
:1064c400000f78000b00370000000000111180005d
:1064d40000202000008060000000e000fbff3a0084
:1064e4001e007800104078000000fb002011880096
:1064f4001e0fe8001e007800104078000004e00041
:10650400f1ff3a000000000011118000002020007b
:10651400008060000000e000fbff3a000080fa0009
:10652400000006000200fa00000f78000b0037009c
:106534000000000091118000002020000080600015
:106544000000e000fbff3a001e00780010407800d5
:106554000000fb00a01188001e0fe8001e00780058
:10656400104078000004e000f1ff3a000000000051
:106574009111800000202000008060000000e000f5
:10658400fbff3a000080fa00000006000600fa0053
:1065940010079800210798000000eb00000f780016
:1065a4000c003700000000001111800000202000c2
:1065b400008060000000e000fbff3a001e00900035
:1065c4001e004000104078000000fb0020118800ed
:1065d4001e0fe8002e0090009e007800808f50006f
:1065e400f0ff39000000000011118000002020009d
:1065f400008060000000e000fbff3a000080fa0029
:10660400000006000600fa00100798002107980011
:106614000000eb00000f78000c00370000000000c1
:106624009111800000202000008060000000e00044
:10663400fbff3a001e0090001e004000104078004e
:106644000000fb00a01188001e0fe8002e0090003f
:106654009e007800808f5000f0ff39000000000099
:106664009111800000202000008060000000e00004
:10667400fbff3a000080fa00000006000600fa0062
:1066840040479800100280004500de00674060002b
:106694000080fb00000f780011028000000e200033
:1066a400010070001002880000000000e058800023
:1066b400ce4090001e100700100798001e007800be
:1066c40000407800674060000080fb0067006000c5
:1066d4004500dd0012028000f1f12f00810061000d
:1066e4000100700010028800000000001e009000ed
:1066f4000000e00005003a00005980000000e800b6
:10670400005988000000eb00010037001000200051
:106714000080fa00000006000600fa0040479800d6
:10672400100280004500de00674060000080fb002e
:10673400000f780011028000000e2000010070009c
:106744001002880000000000f0598000ce40900044
:10675400f70f0700100798001e007800004078002b
:10676400674060000080fb00670060004500dd00ba
:1067740012028000f1f12f0081006100010070001d
:1067840010028800000000001e0090000000e000dd
:1067940005003a00005980000000e8000059880014
:1067a4000000eb0001003700100020000080fa0018
:1067b400000006000800fa00300798003e00900030
:1067c4009cef070080007800e058800040019000b2
:1067d400e05880003000900000005100808f50008d
:1067e40043003900005980000000e8000059880087
:1067f400100280004500de00674060000080fb005e
:10680400000f780011028000000e200001007000cb
:10681400100288000000000000e12a0027ff0700a2
:106824001e00780000407800674060000080fb0094
:10683400670060004500dd0012028000f1f12f00c6
:106844008100610001007000100288000000000057
:106854000000eb002c003700100280004500de0031
:10686400674060000080fb00100798001102800060
:10687400000e2000010070001002880000000000db
:106884003e009000904078003e0090000000e80038
:1068940030079800e0588000a50f070020079800f3
:1068a4001e00900000407800674060000080fb00fc
:1068b400670060004500dd0012028000f1f12f0046
:1068c40081006100010070001002880000000000d7
:1068d4002e0090000000e00006003a0000598000fd
:1068e4000000e800005988000000eb0006003700b3
:1068f400000000003e009000104078000004e0001a
:10690400d5ff3a00100020000080fa0000000600c5
:106914000800fa00300798003e00900045ef070099
:10692400f159800041019000f1598000b1009000bc
:1069340081005100810f500043003900105a80003b
:106944000000e800105a8800100280004500de00b4
:10695400674060000080fb00000f78001102800097
:10696400000e2000010070001002880000000000ea
:1069740020e32a00d1fe07001e00780000407800c2
:10698400674060000080fb00670060004500dd0098
:1069940012028000f1f12f008100610001007000fb
:1069a40010028800000000000000eb002c003700fb
:1069b400100280004500de00674060000080fb009c
:1069c4001007980011028000000e200001007000e2
:1069d40010028800000000003e0090009040780003
:1069e4003e0090000000e80030079800f059800055
:1069f4004f0f0700200798001e0090000040780009
:106a0400674060000080fb00670060004500dd0017
:106a140012028000f1f12f0081006100010070007a
:106a240010028800000000002e0090000000e0002a
:106a340006003a00105a80000000e800105a88004e
:106a44000000eb0006003700000000003e0090004c
:106a5400104078000004e000d5ff3a001000200048
:106a64000080fa00000006000000fa00e0588000f0
:106a7400c0009000e058800030009000008050007a
:106a84000080fa00000006000000fa00f0598000bf
:106a9400c0009000f0598000300090000080500049
:106aa4000080fa00000006000200fa0010028000d4
:106ab4004500de00674060000080fb00000f7800a6
:106ac40011028000000e20000100700010028800f6
:106ad40000000000e05880007c0f07001e007800d2
:106ae40000407800674060000080fb0067006000a1
:106af4004500dd0012028000f1f12f0081006100e9
:106b04000100700010028800000000000000eb008b
:106b1400005988000080fa00000006000200fa0014
:106b2400100280004500de00674060000080fb002a
:106b3400000f780011028000000e20000100700098
:106b44001002880000000000f05980005f0f070069
:106b54001e00780000407800674060000080fb0061
:106b6400670060004500dd0012028000f1f12f0093
:106b74008100610001007000100288000000000024
:106b84000000eb00105a88000080fa0000000600a4
:106b94000200fa00100280004500de006740600039
:106ba4000080fb00000f780011028000000e20001e
:106bb400010070001002880000000000d05880001e
:106bc400420f07001e007800004078006740600014
:106bd4000080fb00670060004500dd0012028000b9
:106be400f1f12f00810061000100700010028800a3
:106bf400000000000000eb00f05888000080fa005c
:106c0400000006000200fa00100280004500de00c9
:106c1400674060000080fb00000f780011028000d4
:106c2400000e200001007000100288000000000027
:106c3400e0598000250f07001e007800004078000e
:106c4400674060000080fb00670060004500dd00d5
:106c540012028000f1f12f00810061000100700038
:106c640010028800000000000000eb00005a8800b9
:106c74000080fa00000006000401fa0068005700d2
:106c8400000f7800100280004500de0067406000bd
:106c94000080fb001007980011028000000e200005
:106ca400010070001002880000000000640047002a
:106cb4001e017800ceb8970075ee07001e00900004
:106cc40000407800674060000080fb0067006000bf
:106cd4004500dd0012028000f1f12f008100610007
:106ce4000100700010028800000000000040eb006a
:106cf40030479a0064004700f0fd07000080fa0066
:106d0400000006000401fa0068005700000f780034
:106d1400100280004500de00674060000080fb0038
:106d24001007980011028000000e2000010070007e
:106d34001002880000000000640047001e01780073
:106d4400ceb8970052ee07001e0090000040780075
:106d5400674060000080fb00670060004500dd00c4
:106d640012028000f1f12f00810061000100700027
:106d740010028800000000000040eb0030479a0039
:106d8400640047008bfe07000080fa000000060044
:106d94000401fa0068005700000f78001002800018
:106da4004500de00674060000080fb00100798008b
:106db40011028000000e2000010070001002880003
:106dc40000000000640047001e017800ceb8970060
:106dd4002fee07001e00900000407800674060001e
:106de4000080fb00670060004500dd0012028000a7
:106df400f1f12f0081006100010070001002880091
:106e0400000000000040eb0030479a006400470097
:106e1400c4fd07000080fa00000006000401fa0027
:106e240068005700000f7800100280004500de0063
:106e3400674060000080fb0010079800110280008a
:106e4400000e200001007000100288000000000005
:106e5400640047001e017800ceb897000cee0700ce
:106e64001e00900000407800674060000080fb0036
:106e7400670060004500dd0012028000f1f12f0080
:106e84008100610001007000100288000000000011
:106e94000040eb0030479a00640047009cfe070066
:106ea4000080fa00000006000601fa00200799009d
:106eb40068005700000f7800100280004500de00d3
